{
		"txid": "60846f7ddedf8c7a989af26f9330c9c6dbe08e140e2954595267d6576ab0d9e1",
		"hash": "60846f7ddedf8c7a989af26f9330c9c6dbe08e140e2954595267d6576ab0d9e1",
		"version": 1,
		"size": 189,
		"vsize": 189,
		"locktime": 0,
		"vin": [
			{
				"txid": "57bada02cee295cfaeaf0c43d140f8f5ec899dd756518d088fd3a4da9ec20c18",
				"vout": 620,
				"scriptSig": {
					"asm": "304402200e748bd36105c1d0cdf0fab98076815bf2ba39a54dffc48da0f1e9a9687bc33e0220047259e25b6417f2201c278018fefab1c7e2200091ea675ea24d4a2c410f4752[ALL] 0344403e004eb9ed47e04ca83795179082c2cd92754a5d0fe9739b557f000705b9",
					"hex": "47304402200e748bd36105c1d0cdf0fab98076815bf2ba39a54dffc48da0f1e9a9687bc33e0220047259e25b6417f2201c278018fefab1c7e2200091ea675ea24d4a2c410f475201210344403e004eb9ed47e04ca83795179082c2cd92754a5d0fe9739b557f000705b9"
				},
				"sequence": 4294967295
			}
		],
		"vout": [
			{
				"value": 0.00169733,
				"n": 0,
				"scriptPubKey": {
					"asm": "OP_HASH160 ab0f26f22f78684c5eee5939e184861a916356d4 OP_EQUAL",
					"hex": "a914ab0f26f22f78684c5eee5939e184861a916356d487",
					"reqSigs": 1,
					"type": "scripthash",
					"addresses": [
						"3HHVd8ommrPTUmAakbPwVQLMdXzC8mPnc3"
					]
				}
			}
		],
		"hex": "0100000001180cc29edaa4d38f088d5156d79d89ecf5f840d1430cafaecf95e2ce02daba576c0200006a47304402200e748bd36105c1d0cdf0fab98076815bf2ba39a54dffc48da0f1e9a9687bc33e0220047259e25b6417f2201c278018fefab1c7e2200091ea675ea24d4a2c410f475201210344403e004eb9ed47e04ca83795179082c2cd92754a5d0fe9739b557f000705b9ffffffff01059702000000000017a914ab0f26f22f78684c5eee5939e184861a916356d48700000000",
		"blockhash": "0000000000000000045f889bb180c0e74673a3f6800f754525503c85478f80e1",
		"confirmations": 102876,
		"time": 1458996994,
		"blocktime": 1458996994
	}
