{
		"txid": "83e44b53cd5739ec9d73c13585a6df8d9fefe815d288dbe62820fbd461cecfc9",
		"hash": "83e44b53cd5739ec9d73c13585a6df8d9fefe815d288dbe62820fbd461cecfc9",
		"version": 2,
		"size": 340,
		"vsize": 340,
		"locktime": 0,
		"vin": [
			{
				"txid": "60846f7ddedf8c7a989af26f9330c9c6dbe08e140e2954595267d6576ab0d9e1",
				"vout": 0,
				"scriptSig": {
					"asm": "0 3045022100e3a7429e6a17adc057d02eff75d46d84c30305a5a3683e0c436a581796be7658022036b747d8772304f76ccdcbabff97bf3e118e7e6d6e3492e2eec31efcdd92814d[ALL] 3044022048b0da07fc6ce4908c74f25448d054feb0d05c4c50df323e1db1e2e5d709519d02204ea32f950c2e81badd432b273c1641e3fa7be925c02fe6f0568019b911a7e1bf[ALL] 522102439c82485854aecdffee256d940450529a7a107b5246184e34ddc074e203ca152102eeddc0d7ac5e504c0dceb10d0d183e3823bbf454628775cda2cc1ddcd5a91a2c21021475443068b9fbbaff25b00df6d48f7fd08418245040167d796fa21631a1badc53ae",
					"hex": "00483045022100e3a7429e6a17adc057d02eff75d46d84c30305a5a3683e0c436a581796be7658022036b747d8772304f76ccdcbabff97bf3e118e7e6d6e3492e2eec31efcdd92814d01473044022048b0da07fc6ce4908c74f25448d054feb0d05c4c50df323e1db1e2e5d709519d02204ea32f950c2e81badd432b273c1641e3fa7be925c02fe6f0568019b911a7e1bf014c69522102439c82485854aecdffee256d940450529a7a107b5246184e34ddc074e203ca152102eeddc0d7ac5e504c0dceb10d0d183e3823bbf454628775cda2cc1ddcd5a91a2c21021475443068b9fbbaff25b00df6d48f7fd08418245040167d796fa21631a1badc53ae"
				},
				"sequence": 4294967295
			}
		],
		"vout": [
			{
				"value": 0.00126368,
				"n": 0,
				"scriptPubKey": {
					"asm": "OP_DUP OP_HASH160 fe138506e0c2f87288f3cc538b81f1cba0a35218 OP_EQUALVERIFY OP_CHECKSIG",
					"hex": "76a914fe138506e0c2f87288f3cc538b81f1cba0a3521888ac",
					"reqSigs": 1,
					"type": "pubkeyhash",
					"addresses": [
						"1QAS1ySG7uo2KFiB3habhPRq4qi9mVRoKe"
					]
				}
			}
		],
		"hex": "0200000001e1d9b06a57d667525954290e148ee0dbc6c930936ff29a987a8cdfde7d6f846000000000fdfd0000483045022100e3a7429e6a17adc057d02eff75d46d84c30305a5a3683e0c436a581796be7658022036b747d8772304f76ccdcbabff97bf3e118e7e6d6e3492e2eec31efcdd92814d01473044022048b0da07fc6ce4908c74f25448d054feb0d05c4c50df323e1db1e2e5d709519d02204ea32f950c2e81badd432b273c1641e3fa7be925c02fe6f0568019b911a7e1bf014c69522102439c82485854aecdffee256d940450529a7a107b5246184e34ddc074e203ca152102eeddc0d7ac5e504c0dceb10d0d183e3823bbf454628775cda2cc1ddcd5a91a2c21021475443068b9fbbaff25b00df6d48f7fd08418245040167d796fa21631a1badc53aeffffffff01a0ed0100000000001976a914fe138506e0c2f87288f3cc538b81f1cba0a3521888ac00000000",
		"blockhash": "000000000000000000140885309bf0b9a499e33e45c425f87b49313a9fbc150b",
		"confirmations": 9235,
		"time": 1512611028,
		"blocktime": 1512611028
	}
